:1000000043C065C15CC05BC05AC059C058C057C02E
:1000100056C055C054C053C052C051C050C04FC04C
:100020004EC04DC04CC009021200010100A00A09D7
:10003000040000000000000012011001FF00000891
:10004000C016E8030001010200011E034700500032
:1000500049004F002D005300550042005300590045
:100060005300540045004D001C0344004500560059
:100070004900430045002D0044005200490056004D
:10008000450052000403090411241FBECFE5D4E04B
:10009000DEBFCDBF10E0A0E6B0E0E8EEF7E002C0C2
:1000A00005900D92A236B107D9F720E0A2E6B0E0A4
:1000B00001C01D92A339B207E1F77AD393C3A0CF51
:1000C000CF93DF9380917900835087FD89C0909111
:1000D00075009D3209F082C0883009F07FC08091A0
:1000E0007600CCE0D0E0C81BD109C358DF4F83ECC9
:1000F000809369008AE58093610010926200888194
:10010000807619F0CE0166D260C08A8110927200AA
:100110009981911106C01092730022E730E082E0CD
:1001200050C0953019F480937A003DC09630A9F5FF
:100130009B81913019F488E390E004C0923041F43F
:1001400086E290E0909378008093770082E121C06E
:100150009330F1F4811108C084E890E09093780026
:100160008093770084E015C0813041F488E690E008
:1001700090937800809377008CE10BC0823041F43B
:100180008AE490E090937800809377008EE101C03C
:1001900080E090E49093620018C0983079F0993034
:1001A00031F480937C0022E730E080E00AC081E0F7
:1001B0009A3009F080E022E730E003C02CE730E01D
:1001C00081E030937800209377009F81911104C0E3
:1001D0009E81981708F4892F80936000109279000F
:1001E0008091610084FF46C0809160008F3F09F4D8
:1001F00041C0C82F893008F0C8E08C1B8093600094
:100200009091690088E8892780936900CC2331F1B7
:1002100040917700509178008091620086FF0AC07B
:10022000AAE6B0E0FA019C2F84918D93319691500B
:10023000D9F708C0DA01EAE6F0E09C2F8D918193AE
:100240009150E1F72FEF2C0F30E02F5F3F4FCA01A5
:10025000820F931F90937800809377006C2F8AE62B
:1002600090E031D0CC5FCC3019F08FEF80936000FC
:10027000C093610084E190B3947131F48150D9F757
:1002800010927A0010927400DF91CF91089585B793
:10029000826085BF8BB780648BBF0895A82FB92F6C
:1002A00080E090E041E050EA609530E009C02D9197
:1002B00082279795879510F084279527305EC8F39D
:1002C0006F5FA8F30895EADF8D939D930895CF9310
:1002D000CFB7CF93DF93C395849BE9F7849B0BC083
:1002E000849B09C0849B07C0849B05C0849B03C07A
:1002F000849B01C089C06F93C0917600DD27C358ED
:10030000DF4F2F9365E5849B03C02F916F91E6CF5C
:100310000F931F934F9320E040E15F9300B304716C
:1003200004FB27F93F9350E03BE039C0147140646F
:100330002F77012F5F5F1EC0406810B314712F77B5
:1003400052501FC0406400B32F770471D1F15F5F3A
:1003500000C023C0406210B32F77147191F15F5F2A
:1003600000C025C004711027515012F45D5F0000D9
:10037000115027952C3F10B3C8F614710127015076
:1003800027952C3FC8F64227499300B304711027E4
:100390004F73115027952C3FA8F64695469510B3FC
:1003A000147179F00127015027952C3F98F66B5A6C
:1003B00060F3315000B3B0F600C010E41ABF00275C
:1003C00017C03B503195C31BD04010E41ABF0881C1
:1003D000033CF9F00B34E9F0209174001981110FFE
:1003E0001213EDCF093651F10D3211F0013E39F7FC
:1003F00000937B003F915F914F911F910F912F913F
:100400006F91CAB7C6FD67CFDF91CF91CFBFCF91B4
:10041000189520917B00222369F310917900112314
:1004200039F534303AF1309379002093750010910A
:1004300076003BE0311B309376001CC000917900C0
:100440000130B4F40AE53091610034FD14C000932A
:100450006100C9E6D0E013C0052710E000C000002D
:1004600002BB1AC0052710E0221F1DC010E021C0EA
:100470004AE502C032ED432FC4E1D0E032E011B3CF
:100480001461949A02B311BB54E120E865E320FFA4
:10049000052702BB279517951C3FF0F66695B8F720
:1004A000B1F720FF052702BB279517951C3FD0F613
:1004B0002795179517FF052700001C3F02BBB0F6D4
:1004C00029913A9519F70B7E10917A00110FC651B8
:1004D000D04002BB11F01093740010E41ABF006109
:1004E00011B31B7E402F4B7E54E05A95F1F702BBAF
:1004F00011BB42BB7FCF833050F0833099F0843002
:1005000009F465C0853051F1863009F45EC08D3044
:1005100030F4873020F5813008F45BC004C08331AB
:10052000C8F1089584E090E041B3019721E030E004
:10053000611109C0B90102C0660F771F8A95E2F701
:10054000CB01842B09C0B90102C0660F771F8A95C1
:10055000E2F7CB018095842381BB089587E090E08A
:1005600047B3079721E030E0611109C0B90102C02B
:10057000660F771F8A95E2F7CB01842B09C0B9017A
:1005800002C0660F771F8A95E2F7CB01809584231E
:1005900087BB089590E044B30D9721E030E06111EE
:1005A00009C0B90102C0660F771F8A95E2F7CB0137
:1005B000842B09C0B90102C0660F771F8A95E2F744
:1005C000CB018095842384BB089588E0C8CF86E062
:1005D000AACF0895FC01918190936300923099F025
:1005E00050F4992371F0913009F0D0C0828180934A
:1005F000640061E00CC0933069F0943009F44CC0A1
:10060000C5C081E0C6C082818093640060E073DF72
:1006100082E0BFC0828180936400833050F08330D9
:10062000B9F0843009F4BCC0853051F1863009F44A
:10063000B9C08D3030F4873020F5813008F4A8C07F
:1006400008C0833108F0A4C023B330E08D5004C04B
:1006500084E020B330E08150A90102C05595479550
:100660008A95E2F7CA0180FD05C0109265001092DC
:1006700066008EC081E0809365008093660088C02C
:1006800087E026B330E08750B90102C075956795C1
:100690008A95E2F7CB01E7CF9281909364002381A2
:1006A00020936500933050F09330A1F0943009F41A
:1006B0007DC0953071F1963009F476C09D3030F4EC
:1006C000973040F5913008F463C005C0933108F4C9
:1006D0003FC05EC094E0892F90E042B3019722238F
:1006E00059F021E030E0B90102C0660F771F8A950A
:1006F000E2F7CB01842B0BC021E030E0B90102C04E
:10070000660F771F8A95E2F7CB018095842382BB21
:100710003FC097E0892F90E048B30797222359F014
:1007200021E030E0B90102C0660F771F8A95E2F739
:10073000CB01842B0BC021E030E0B90102C0660F71
:10074000771F8A95E2F7CB018095842388BB20C070
:10075000892F90E045B30D97222359F021E030E036
:10076000B90102C0660F771F8A95E2F7CB01842B8F
:100770000BC021E030E0B90102C0660F771F8A95F7
:10078000E2F7CB018095842385BB02C080E001C0E5
:1007900083E023E630E030937800209377000895DB
:1007A00086E057CF88E06DCF98E0B4CF96E093CF46
:1007B0009FE088E10FB6F894A89581BD0FBE91BD6A
:1007C00066DD8C9A80E0815041F0A895EFE9FFE06A
:1007D0003197F1F700C00000F6CF8C987894A89577
:0807E0006FDCFDCFF894FFCFA0
:0207E800FF5AB6
:00000001FF
